S010000050726F6A656374322E737265630B
S11300000C943A000C944F000C944F000C944F0045
S11300100C944F000C944F000C944F000C944F0020
S11300200C944F000C944F000C944F000C944F0010
S11300300C944F000C944F000C944F000C944F0000
S11300400C944F000C944F000C944F000C944F00F0
S11300500C944F0018023802AC02AC025502630241
S1130060AC02AC026D027502AC02AC027F028C02DF
S11300709602A30211241FBECFE5D8E0DEBFCDBF98
S113008010E0A0E6B0E0EAE0FCE002C005900D92CA
S1130090A63AB107D9F70E94B7020C9403060C9450
S11300A00000662311F0C09A01C0C098C19882BBB9
S11300B08FEF81BBC29A000000000000C29808952F
S11300C0C098C19A11BA90B3C29A0000000000000F
S11300D011BA90B3C29899239CF30E9451000895D9
S11300E09C0183E083BF83E808C082BF98B7916016
S11300F098BFA89508B600FEFDCF21503109A8F796
S113010013BE0895B89AB99ABA9A80E190E00E9411
S1130110700060E080E30E94510085E090E00E945E
S1130120700060E080E30E94510081E090E00E9452
S1130130700060E08CE30E94600060E08CE00E944C
S1130140600060E086E00E94600060E081E00E9460
S113015060000895CF93C62F98E2899FC00D1124A3
S113016060E082E00E946000CC2331F060E084E132
S11301700E946000C150D1F7CF910895CF93DF93CF
S1130180EC012196FC018081882331F061E00E941A
S1130190600089918111FACFDF91CF910895EF9298
S11301A0FF920F931F93CF93DF938C01F62E15BA12
S11301B081E090E00E94700014BA81E090E00E9417
S11301C0700084B3C1E0D0E09E0102C0220F331F4F
S11301D0FA94E2F77901822B84BB81E090E00E94DB
S11301E0700085B3E094E822E5BA81E090E00E94D3
S11301F0700085B30C5F1F4F002E02C0CC0FDD1FB3
S11302000A94E2F7C82BC5BB81E090E00E9470001D
S113021023B330E002C0359527950A95E2F781E0D3
S113022090E020FF02C080E090E0DF91CF911F9129
S11302300F91FF90EF9008950F931F93CF93DF9347
S113024000E010E018C0B801CE010E94CF00009772
S113025049F0C801880F991F880F991F01968C0FC8
S11302609D1F0CC02196C430D10569F70F5F1F4F45
S11302700430110519F0C0E0D0E0E5CFDF91CF9153
S11302801F910F910895FC01248535852F5F3F4F01
S11302902A30310519F03587248708951586148688
S11302A08285938501968C33910519F09387828713
S11302B00895138612868085918501968C33910565
S11302C019F0918780870895118610868681978119
S11302D001968831910519F09783868308951782D2
S11302E0168284819581019695838483268537853A
S11302F02F5F3F4F8217930701F581E090E09583CC
S113030084838281938101968D30910519F09383C2
S1130310828309C081E090E093838283808191810C
S1130320019691838083A281B381AA0FBB1FA45736
S1130330BF4F8D919C91978786870895EF92FF9286
S11303400F931F93CF93DF93CDB7DEB7A2970FB66A
S1130350F894DEBF0FBECDBF8C01FC0181818F9369
S113036080818F9385818F9384818F9383818F93F1
S113037082818F9380E790E09F938F93CE010196C3
S11303807C019F938F930E94190363E080E00E9495
S1130390AA00C7010E94BE00F80183858F9382855D
S11303A08F9381858F9380858F9387818F938681A7
S11303B08F938FE790E09F938F938E010E5E1F4F74
S11303C01F930F930E94190364E081E00E94AA0026
S11303D0C8010E94BE000FB6F894DEBF0FBECDBFA9
S11303E0A2960FB6F894DEBF0FBECDBFDF91CF91BA
S11303F01F910F91FF90EF900895CF93DF93EC013D
S11304001B861A861D861C8684E690E00E94700076
S11304100E941C018430910509F4A4C0FC013197A9
S1130420E031F10508F098C0E65DFF4F0C94FF023F
S11304308A819B818130910529F48CE090E09B8333
S11304408A8303C001979B838A83EA81FB81EE0F31
S1130450FF1FE457FF4F808191819F878E872C81F6
S11304603D81821793070CF077C09D838C8374C001
S11304708A819B816CE070E00E94EB029C012F5FFB
S11304803F4F3B832A83880F991FFC01E257FF4F9C
S1130490808191819F878E872C813D81821793076C
S11304A00CF05AC09D838C8357C08C819D81813010
S11304B0910529F48E859F859D838C834DC001977A
S11304C09D838C8349C08C819D816E857F850E942C
S11304D0EB0201969D838C833FC0888199810097AC
S11304E0D9F101979983888337C0888199818F30A6
S11304F027E2920789F10196998388832DC08E8122
S11305009F81009729F487E190E09F838E8324C024
S113051001979F838E8320C08E819F81019668E11D
S113052070E00E94EB029F838E8316C088859985B4
S1130530009729F48BE390E0998788870DC0019791
S11305409987888709C08885998501966CE370E04E
S11305500E94EB0299878887CE010E949E0180E069
S113056090E002C081E090E0DF91CF910895CF93B5
S1130570DF93CDB7DEB760970FB6F894DEBF0FBE3A
S1130580CDBF80E1E0E6F0E0DE01119601900D922E
S11305908A95E1F70E94820084E190E00E94700055
S11305A0CE0101960E944301CE0101960E949E0154
S11305B00E941C01049781F784EF91E00E9470006F
S11305C0CE0101960E94FD01892BD1F384EF91E0C5
S11305D00E947000E1CF97FB072E16F4009407D019
S11305E077FD09D00E94050307FC05D03EF49095E1
S11305F081959F4F0895709561957F4F0895EE0FF3
S1130600FF1F0590F491E02D0994AA1BBB1B51E137
S113061007C0AA1FBB1FA617B70710F0A61BB70B6E
S1130620881F991F5A95A9F780959095BC01CD0113
S11306300895AEE0B0E0EFE1F3E00C94DA050D8943
S11306401E8986E08C831A8309838FEF9FE79E833C
S11306508D83AE01475E5F4F6F89788DCE01019621
S11306600E943B03EF81F885E00FF11F10822E9664
S1130670E4E00C94F605ABE0B0E0E1E4F3E00C94C4
S1130680CC056C017B018A01FC01178216828381EF
S113069081FFCCC1CE0101963C01F6019381F701A3
S11306A093FD859193FF81917F01882309F4BAC159
S11306B0853239F493FD859193FF81917F018532D1
S11306C029F4B60190E00E943205E7CF912C212C49
S11306D0312CFFE1F315D8F08B3279F038F4803205
S11306E079F08332A1F4232D20611DC08D3261F095
S11306F0803369F4232D216016C0832D8260382E47
S1130700E32DE4603E2E2AC0F32DF8601DC037FCB3
S11307102DC020ED280F2A3040F08E32B9F436FC7B
S113072081C1232D2064322E19C036FE06C08AE012
S1130730989E200D1124922E11C0EAE02E9E200DC9
S11307401124222EF32DF0623F2E08C08C3621F4A2
S1130750832D8068382E02C0883641F4F70193FD5A
S1130760859193FF81917F018111B3CF982F9F7D54
S11307709554933028F40C5F1F4F9FE399830DC069
S1130780833631F0833771F0833509F059C021C0C5
S1130790F801808189830E5F1F4F88248394912CF4
S11307A0530113C02801F2E04F0E511CF801A08040
S11307B0B18036FE03C0692D70E002C06FEF7FEF99
S11307C0C5010E9427054C018201F32DFF773F2EBE
S11307D016C0280122E0420E511CF801A080B1800D
S11307E036FE03C0692D70E002C06FEF7FEFC501D4
S11307F00E941C054C01F32DF0683F2E820133FC4E
S11308001BC0822D90E088169906B0F4B60180E2F0
S113081090E00E9432052A94F4CFF50137FC8591CB
S113082037FE81915F01B60190E00E9432052110EC
S11308302A9421E0821A91088114910471F7E8C086
S1130840843611F0893641F5F80137FE07C060811E
S11308507181828193810C5F1F4F08C06081718117
S1130860072E000C880B990B0E5F1F4FF32DFF769C
S11308703F2E97FF09C090958095709561957F4FA5
S11308808F4F9F4FF0683F2E2AE030E0A3010E9473
S11308906E05882E861845C0853731F4232D2F7EAA
S11308A0B22E2AE030E025C0932D997FB92E8F36E1
S11308B0C1F018F4883579F0B5C0803719F088375D
S11308C021F0B0C0E92FE061BE2EB4FE0DC0FB2DB7
S11308D0F460BF2E09C034FE0AC0292F2660B22E50
S11308E006C028E030E005C020E130E002C020E18D
S11308F032E0F801B7FE07C0608171818281938183
S11309000C5F1F4F06C06081718180E090E00E5F34
S11309101F4FA3010E946E05882E8618FB2DFF77BA
S11309203F2E36FE0DC0232D2E7FA22E891458F49F
S113093034FE0BC032FC09C0832D8E7EA82E05C068
S1130940B82CA32C03C0B82C01C0B92CA4FE0FC032
S1130950FE01E80DF11D8081803321F49A2D997EEA
S1130960A92E09C0A2FE06C0B394B39404C08A2D74
S1130970867809F0B394A3FC11C0A0FE06C0B2149B
S113098088F4280C922C9B180EC0B21460F4B601A3
S113099080E290E00E943205B394F7CFB21418F4C9
S11309A02B1802C0982C212CA4FE10C0B60180E3A1
S11309B090E00E943205A2FE17C0A1FC03C088E7A4
S11309C090E002C088E590E0B6010CC08A2D8678DC
S11309D059F0A1FE02C08BE201C080E2A7FC8DE2C7
S11309E0B60190E00E943205891438F4B60180E320
S11309F090E00E9432059A94F7CF8A94F301E80DAF
S1130A00F11D8081B60190E00E9432058110F5CF7E
S1130A10222009F442CEB60180E290E00E94320521
S1130A202A94F6CFF6018681978102C08FEF9FEF5B
S1130A302B96E2E10C94E805FC01059061507040AE
S1130A400110D8F7809590958E0F9F1F0895FC0193
S1130A506150704001900110D8F7809590958E0FE9
S1130A609F1F08950F931F93CF93DF93FB0123815F
S1130A7021FD03C08FEF9FEF2CC022FF16C04681DB
S1130A805781248135814217530744F4A081B181F1
S1130A909D012F5F3F4F318320838C9326813781C3
S1130AA02F5F3F4F3783268314C08B01EC01FB017A
S1130AB00084F185E02D0995892BE1F6D80116967D
S1130AC08D919C911797019617969C938E931697E8
S1130AD0CE01DF91CF911F910F910895FA01AA27BA
S1130AE0283051F1203181F1E8946F936E7F6E5F6D
S1130AF07F4F8F4F9F4FAF4FB1E03ED0B4E03CD01B
S1130B00670F781F891F9A1FA11D680F791F8A1FFD
S1130B10911DA11D6A0F711D811D911DA11D20D064
S1130B2009F468943F912AE0269F11243019305D1E
S1130B303193DEF6CF010895462F4770405D41930F
S1130B40B3E00FD0C9F7F6CF462F4F70405D4A335C
S1130B5018F0495D31FD4052419302D0A9F7EACF24
S1130B60B4E0A6959795879577956795BA95C9F753
S1130B7000976105710508959B01AC010A2E069446
S1130B805795479537952795BA95C9F7620F731FFF
S1130B90841F951FA01D08952F923F924F925F923C
S1130BA06F927F928F929F92AF92BF92CF92DF9279
S1130BB0EF92FF920F931F93CF93DF93CDB7DEB7DE
S1130BC0CA1BDB0B0FB6F894DEBF0FBECDBF099472
S1130BD02A88398848885F846E847D848C849B84C9
S1130BE0AA84B984C884DF80EE80FD800C811B81D7
S1130BF0AA81B981CE0FD11D0FB6F894DEBF0FBE06
S10D0C00CDBFED010895F894FFCF75
S1130C0AE30703001F0017003B001E0000001F003B
S1130C1A253032642F253032642F25303464002580
S1130C2A3032643A253032643A25303264001F0087
S1130C3A1C001F001E001F001E001F001F001E00B4
S1090C4A1F001E001F0044
S9030000FC
