S010000050726F6A656374352E7372656308
S11300000C943A000C944C000C944C000C944C004E
S11300100C944C000C944C000C944C000C944C002C
S11300200C944C000C944C000C944C000C944C001C
S11300300C944C000C944C000C944C000C944C000C
S11300400C944C000C944C000C944C000C944C00FC
S11300500C944C00CE01D201D601BE01DA01DE01BE
S1130060E201C201E601EA01EE01C601F501F20175
S1130070F501CA0111241FBECFE5D8E0DEBFCDBF14
S113008020E0A0E6B0E001C01D92AA37B207E1F774
S11300900E94FB010C942A030C940000662311F0C7
S11300A0C09A01C0C098C19882BB8FEF81BBC29A2D
S11300B0000000000000C2980895C098C19A11BAC7
S11300C090B3C29A00000000000011BA90B3C29825
S11300D099239CF30E944E000895CF92DF92EF92F1
S11300E0FF92CF936B017C0183E083BF20E030E07B
S11300F0A901C701B6010E94D3021816CCF4C3EFBC
S1130100C2BF88B7816088BF08B600FEFDCF2DEC62
S11301103CEC4CEC5DE3C701B6010E9415026B0197
S11301207C0120E030E0A9010E94D302181644F3B8
S113013013BECF91FF90EF90DF90CF900895EF9290
S1130140FF920F931F93CF93DF938C01F62E15BA72
S113015060E070E080E89FE30E946D0014BA60E004
S113016070E080E89FE30E946D0084B3C1E0D0E0BA
S11301709E0102C0220F331FFA94E2F77901822B09
S113018084BB60E070E080E89FE30E946D0085B36B
S1130190E094E822E5BA60E070E080E89FE30E9422
S11301A06D0085B30C5F1F4F002E02C0CC0FDD1F06
S11301B00A94E2F7C82BC5BB60E070E080E89FE3D7
S11301C00E946D0023B330E002C0359527950A954F
S11301D0E2F781E090E020FF02C080E090E0DF9150
S11301E0CF911F910F91FF90EF9008950F931F935C
S11301F0CF93DF9300E010E018C0B801CE010E9455
S11302009F00009749F0C801880F991F880F991F14
S113021001968C0F9D1F0CC02196C430D10569F73F
S11302200F5F1F4F0430110519F0C0E0D0E0E5CF97
S1130230DF91CF911F910F910895B89AB99ABA9A04
S113024060E070E080E891E40E946D0060E080E38B
S11302500E944E0060E070E080EA90E40E946D002D
S113026060E080E30E944E0060E070E080E89FE37D
S11302700E946D0060E08CE30E945D0060E08CE011
S11302800E945D0060E086E00E945D0060E081E025
S11302900E945D00089560E081E00E945D00089581
S11302A0CF93C62F98E2899FC00D112460E082E0AD
S11302B00E945D00CC2331F060E084E10E945D0087
S11302C0C150D1F7CF910895CF93DF93EC012196DC
S11302D0FC018081882331F061E00E945D008991F6
S11302E08111FACFDF91CF9108952091620030916E
S11302F06300F901EA59FF4F8083C901019664E163
S113030070E00E94FC0290936300809362008091ED
S11303106400909165000196909365008093640059
S1130320089580916400909165001816190644F4AC
S1130330E6E6F0E08A599F4F1192E817F907E1F7D2
S11303401092650010926400109263001092620093
S11303501092610010926000089520916400309121
S113036065002031310509F440C0FC013197E031CA
S1130370F105D8F5E65DFF4F0C9410038BE20E9463
S1130380750108958DE20E94750108958AE20E9424
S1130390750108958FE20E947501089581E30E941A
S11303A07501089582E30E947501089583E30E9414
S11303B07501089584E30E947501089585E30E9400
S11303C07501089586E30E947501089587E30E94EC
S11303D07501089588E30E947501089589E30E94D8
S11303E07501089580E30E94750108950E944B01F0
S11303F00E94910108950E941D010E94F600EC01E3
S11304000E94AD0160E080E00E94500186E690E029
S11304100E9464012F9711F40E94F60160E070E0DD
S11304208AE793E40E946D00E8CF5058BB27AA27BF
S11304300E942D020C9499020E948B0238F00E94B3
S1130440920220F039F49F3F19F426F40C948802A8
S11304500EF4E095E7FB0C948202E92F0E94AA02B5
S113046058F3BA17620773078407950720F079F4E5
S1130470A6F50C94CC020EF4E0950B2EBA2FA02D09
S11304800B01B90190010C01CA01A0011124FF273D
S1130490591B99F0593F50F4503E68F11A16F04038
S11304A0A22F232F342F4427585FF3CF4695379537
S11304B02795A795F0405395C9F77EF41F16BA0BFC
S11304C0620B730B840BBAF09150A1F0FF0FBB1FAA
S11304D0661F771F881FC2F70EC0BA0F621F731FF3
S11304E0841F48F4879577956795B795F7959E3F50
S11304F008F0B0CF9395880F08F09927EE0F9795E1
S11305008795089597F99F6780E870E060E0089503
S11305109FEF80EC089500240A9416161706180617
S11305200906089500240A941216130614060506F3
S11305300895092E0394000C11F4882352F0BB0F84
S113054040F4BF2B11F460FF04C06F5F7F4F8F4FE7
S11305509F4F089557FD9058440F551F59F05F3F22
S113056071F04795880F97FB991F61F09F3F79F0D1
S113057087950895121613061406551FF2CF469553
S1130580F1DF08C0161617061806991FF1CF8695D5
S11305907105610508940895E894BB2766277727B9
S11305A0CB0197F908950E94D80208F48FEF0895BB
S11305B0990F0008550FAA0BE0E8FEEF1616170670
S11305C0E807F907C0F012161306E407F50798F0D8
S11305D0621B730B840B950B39F40A2661F0232BF1
S11305E0242B252B21F408950A2609F4A140A6956D
S11305F08FEF811D811D089597FB072E16F400943B
S113060007D077FD09D00E94160307FC05D03EF4FD
S1130610909581959F4F0895709561957F4F0895AA
S1130620EE0FFF1F0590F491E02D0994AA1BBB1B4C
S113063051E107C0AA1FBB1FA617B70710F0A61BDE
S1130640B70B881F991F5A95A9F780959095BC01FF
S10B0650CD010895F894FFCFD9
S9030000FC
