S010000050726F6A656374342E7372656309
S11300000C942A000C9447000C9447000C9447006D
S11300100C9447000C9447000C9447000C94470040
S11300200C9447000C9447000C9447000C94470030
S11300300C9447000C9447000C9447000C94470020
S11300400C9447000C9447000C9447000C94470010
S11300500C94470011241FBECFE5D8E0DEBFCDBF0E
S113006010E0A0E6B0E0E2E5F1E102C005900D92F7
S1130070A239B107D9F720E0A2E9B0E001C01D928E
S1130080A03CB207E1F70E9427030C94A7080C9444
S11300900000662311F0C09A01C0C098C19882BBC9
S11300A08FEF81BBC29A000000000000C29808953F
S11300B0C098C19A11BA90B3C29A0000000000001F
S11300C011BA90B3C29899239CF30E9449000895F1
S11300D0CF92DF92EF92FF92CF936B017C0183E08A
S11300E083BF20E030E0A901C701B6010E94FF04EC
S11300F01816CCF4C3EFC2BF88B7816088BF08B6B6
S113010000FEFDCF2DEC3CEC4CEC5DE3C701B601E9
S11301100E945C036B017C0120E030E0A9010E9495
S1130120FF04181644F313BECF91FF90EF90DF90B5
S1130130CF900895EF92FF920F931F93CF93DF9385
S11301408C01F62E15BA60E070E080E89FE30E940F
S1130150680014BA60E070E080E89FE30E946800E1
S113016084B3C1E0D0E09E0102C0220F331FFA9491
S1130170E2F77901822B84BB60E070E080E89FE3C2
S11301800E94680085B3E094E822E5BA60E070E07C
S113019080E89FE30E94680085B30C5F1F4F002E28
S11301A002C0CC0FDD1F0A94E2F7C82BC5BB60E088
S11301B070E080E89FE30E94680023B330E002C04F
S11301C0359527950A95E2F781E090E020FF02C07B
S11301D080E090E0DF91CF911F910F91FF90EF901D
S11301E008950F931F93CF93DF9300E010E018C09E
S11301F0B801CE010E949A00009749F0C801880F07
S1130200991F880F991F01968C0F9D1F0CC0219672
S1130210C430D10569F70F5F1F4F0430110519F081
S1130220C0E0D0E0E5CFDF91CF911F910F91089509
S1130230B89AB99ABA9A60E070E080E891E40E94B2
S1130240680060E080E30E94490060E070E080EABA
S113025090E40E94680060E080E30E94490060E04E
S113026070E080E89FE30E94680060E08CE30E94F5
S1130270580060E08CE00E94580060E086E00E9434
S1130280580060E081E00E9458000895CF93C62F83
S113029098E2899FC00D112460E082E00E9458001A
S11302A0CC2331F060E084E10E945800C150D1F7C2
S11302B0CF910895CF93DF93EC012196FC018081C7
S11302C0882331F061E00E94580089918111FACFAE
S11302D0DF91CF9108952091940030919500F90118
S11302E0EE0FFF1FE856FF4F91838083C9010196EB
S11302F064E170E00E9495059093950080939400CA
S11303008091960090919700019690939700809326
S1130310960008958091920090919300FC01EE0F55
S1130320FF1FE856FF4F20813181019664E170E0A0
S11303300E9495059093930080939200809196007B
S11303409091970001979093970080939600C9012C
S113035008950E9418013E9A379A329A319A089564
S1130360369A3699FECF84B195B108950F931F93B1
S1130370CF93DF938C010E94B001EC01F8019783C5
S113038086838091960090919700439749F40E9448
S11303908A01F80124813581281B390B3583248394
S11303A0CE010E946B01F801808191818C179D0719
S11303B014F4D183C083F80182819381C817D907CB
S11303C014F4D383C283F80184819581C80FD91FA3
S11303D0D583C483DF91CF911F910F9108958F929C
S11303E09F92AF92BF92CF92DF92EF92FF920F93C0
S11303F01F93CF93DF93CDB7DEB72A970FB6F89448
S1130400DEBF0FBECDBF6C01FC0166817781072E74
S1130410000C880B990B0E9473042AE939E94CE417
S113042053E40E94C9034B015C0120E030E040E248
S113043051E40E9404050E943B040F2EFAE0EF2EC3
S1130440F12CF02DCB01B7010E9495059F938F935A
S1130450C501B4010E943B047F936F938FE790E042
S11304609F938F938E010F5F1F4F1F930F930E94D3
S1130470BD0560E080E00E944601C8010E945A0167
S1130480F60160817181072E000C880B990B0E9484
S113049073042AE939E94CE453E40E94C9034B018B
S11304A05C0120E030E040E251E40E9404050E9437
S11304B03B04CB01B7010E9495059F938F93C5011F
S11304C0B4010E943B047F936F9380E690E09F9376
S11304D08F931F930F930E94BD0569E080E00E94F3
S11304E04601C8010E945A01F60162817381072EF8
S11304F0000C880B990B0E9473042AE939E94CE437
S113050053E40E94C9034B015C0120E030E040E267
S113051051E40E9404050E943B04CB01B7010E94F0
S113052095059F938F93C501B4010E943B047F936B
S11305306F938EE690E09F938F931F930F930E9487
S1130540BD0569E081E00E944601C8010E945A018C
S1130550F60164817581072E000C880B990B0E94AB
S113056073042AE939E94CE453E40E94C9034B01BA
S11305705C016091960070919700072E000C880B27
S1130580990B0E9473049B01AC01C501B4010E9444
S1130590C9034B015C0120E030E040E251E40E94D9
S11305A004050E943B04CB01B7010E9495059F936B
S11305B08F93C501B4010E943B047F936F938CE732
S11305C090E09F938F931F930F930E94BD050FB6E6
S11305D0F894DEBF0FBECDBF60E081E00E9446010B
S11305E0C8010E945A012A960FB6F894DEBF0FBEC6
S11305F0CDBFDF91CF911F910F91FF90EF90DF90CE
S1130600CF90BF90AF909F908F90089560E080E06E
S11306100E9446018DE890E00E945A0169E080E062
S11306200E9446018AE890E00E945A0160E081E05D
S11306300E9446018AE890E00E945A0169E081E044
S11306400E9446018AE890E00E945A010895CF93DF
S1130650DF93CDB7DEB728970FB6F894DEBF0FBE91
S1130660CDBF0E94A9011A8219828FEF93E09C8367
S11306708B831E821D8218861F820E94060360E0FF
S113068070E08AEF93E40E9468000E94F1000197F1
S1130690A1F7CE0101960E94B601CE0101960E94F7
S11306A0EF0160E070E08AEF93E40E9468000E942A
S11306B0F100019771F7E1CF5058BB27AA270E9498
S11306C074030C94C5040E94B70438F00E94BE045D
S11306D020F039F49F3F19F426F40C94B4040EF47A
S11306E0E095E7FB0C94AE04E92F0E94D60458F37E
S11306F0BA17620773078407950720F079F4A6F503
S11307000C94F8040EF4E0950B2EBA2FA02D0B01D7
S1130710B90190010C01CA01A0011124FF27591B42
S113072099F0593F50F4503E68F11A16F040A22F48
S1130730232F342F4427585FF3CF469537952795B9
S1130740A795F0405395C9F77EF41F16BA0B620BB8
S1130750730B840BBAF09150A1F0FF0FBB1F661FFF
S1130760771F881FC2F70EC0BA0F621F731F841F42
S113077048F4879577956795B795F7959E3F08F068
S1130780B0CF9395880F08F09927EE0F979587952A
S113079008950E94DD030C94C5040E94BE0458F021
S11307A00E94B70440F029F45F3F29F00C94AE0492
S11307B051110C94F9040C94B4040E94D60468F307
S11307C09923B1F3552391F3951B550BBB27AA2706
S11307D062177307840738F09F5F5F4F220F331F40
S11307E0441FAA1FA9F335D00E2E3AF0E0E832D008
S11307F091505040E695001CCAF72BD0FE2F29D00B
S1130800660F771F881FBB1F261737074807AB07DC
S1130810B0E809F0BB0B802DBF01FF2793585F4F51
S11308203AF09E3F510578F00C94AE040C94F90410
S11308305F3FE4F3983ED4F3869577956795B79533
S1130840F7959F5FC9F7880F911D9695879597F93E
S11308500895E1E0660F771F881FBB1F62177307B7
S11308608407BA0720F0621B730B840BBA0BEE1FCC
S113087088F7E09508950E9442046894B1110C949D
S1130880F90408950E94DE0488F09F5798F0B92F68
S11308909927B751B0F0E1F0660F771F881F991FB1
S11308A01AF0BA95C9F714C0B13091F00E94F80457
S11308B0B1E008950C94F804672F782F8827B85F67
S11308C039F0B93FCCF3869577956795B395D9F709
S11308D03EF490958095709561957F4F8F4F9F4F13
S11308E00895E89409C097FB3EF49095809570951F
S11308F061957F4F8F4F9F4F9923A9F0F92F96E968
S1130900BB279395F695879577956795B795F111DC
S1130910F8CFFAF4BB0F11F460FF1BC06F5F7F4F79
S11309208F4F9F4F16C0882311F096E911C077238B
S113093021F09EE8872F762F05C0662371F096E894
S1130940862F70E060E02AF09A95660F771F881F63
S1130950DAF7880F9695879597F9089597F99F6721
S113096080E870E060E008959FEF80EC0895002433
S11309700A941616170618060906089500240A9400
S113098012161306140605060895092E0394000C86
S113099011F4882352F0BB0F40F4BF2B11F460FF15
S11309A004C06F5F7F4F8F4F9F4F089557FD90583E
S11309B0440F551F59F05F3F71F04795880F97FB1F
S11309C0991F61F09F3F79F08795089512161306D9
S11309D01406551FF2CF4695F1DF08C01616170608
S11309E01806991FF1CF869571056105089408953D
S11309F0E894BB2766277727CB0197F908950E94CF
S1130A00710508F48FEF08950E9417050C94C5042E
S1130A100E94B70438F00E94BE0420F0952311F020
S1130A200C94AE040C94B40411240C94F9040E94A4
S1130A30D60470F3959FC1F3950F50E0551F629F44
S1130A40F001729FBB27F00DB11D639FAA27F00D23
S1130A50B11DAA1F649F6627B00DA11D661F829F4A
S1130A602227B00DA11D621F739FB00DA11D621F2F
S1130A70839FA00D611D221F749F3327A00D611D4C
S1130A80231F849F600D211D822F762F6A2F11242E
S1130A909F5750409AF0F1F088234AF0EE0FFF1F61
S1130AA0BB1F661F771F881F91505040A9F79E3FB8
S1130AB0510580F00C94AE040C94F9045F3FE4F308
S1130AC0983ED4F3869577956795B795F795E7950E
S1130AD09F5FC1F7FE2B880F911D9695879597F917
S1130AE00895990F0008550FAA0BE0E8FEEF1616BB
S1130AF01706E807F907C0F012161306E407F5070E
S1130B0098F0621B730B840B950B39F40A2661F081
S1130B10232B242B252B21F408950A2609F4A14024
S1130B20A6958FEF811D811D089597FB072E16F45E
S1130B30009407D077FD09D00E94A90507FC05D0D1
S1130B403EF4909581959F4F0895709561957F4FE0
S1130B500895AA1BBB1B51E107C0AA1FBB1FA61700
S1130B60B70710F0A61BB70B881F991F5A95A9F752
S1130B7080959095BC01CD010895AEE0B0E0E3EC22
S1130B80F5E00C947E080D891E8986E08C831A8317
S1130B9009838FEF9FE79E838D83AE01475E5F4F8E
S1130BA06F89788DCE0101960E94DF05EF81F8856B
S1130BB0E00FF11F10822E96E4E00C949A08ABE04B
S1130BC0B0E0E5EEF5E00C9470086C017B018A015D
S1130BD0FC0117821682838181FFCCC1CE0101966C
S1130BE03C01F6019381F70193FD859193FF819177
S1130BF07F01882309F4BAC1853239F493FD8591C4
S1130C0093FF81917F01853229F4B60190E00E941F
S1130C10D607E7CF912C212C312CFFE1F315D8F026
S1130C208B3279F038F4803279F08332A1F4232DB9
S1130C3020611DC08D3261F0803369F4232D216061
S1130C4016C0832D8260382EE32DE4603E2E2AC028
S1130C50F32DF8601DC037FC2DC020ED280F2A307D
S1130C6040F08E32B9F436FC81C1232D2064322E3B
S1130C7019C036FE06C08AE0989E200D1124922EDB
S1130C8011C0EAE02E9E200D1124222EF32DF062D5
S1130C903F2E08C08C3621F4832D8068382E02C084
S1130CA0883641F4F70193FD859193FF81917F018B
S1130CB08111B3CF982F9F7D9554933028F40C5F06
S1130CC01F4F9FE399830DC0833631F0833771F052
S1130CD0833509F059C021C0F801808189830E5FF2
S1130CE01F4F88248394912C530113C02801F2E0F0
S1130CF04F0E511CF801A080B18036FE03C0692D4F
S1130D0070E002C06FEF7FEFC5010E94CB074C017A
S1130D108201F32DFF773F2E16C0280122E0420EF8
S1130D20511CF801A080B18036FE03C0692D70E02B
S1130D3002C06FEF7FEFC5010E94C0074C01F32D85
S1130D40F0683F2E820133FC1BC0822D90E0881690
S1130D509906B0F4B60180E290E00E94D6072A9486
S1130D60F4CFF50137FC859137FE81915F01B6011F
S1130D7090E00E94D60721102A9421E0821A91085B
S1130D808114910471F7E8C0843611F0893641F575
S1130D90F80137FE07C060817181828193810C5F05
S1130DA01F4F08C060817181072E000C880B990BBE
S1130DB00E5F1F4FF32DFF763F2E97FF09C09095CE
S1130DC08095709561957F4F8F4F9F4FF0683F2EB0
S1130DD02AE030E0A3010E941208882E861845C03C
S1130DE0853731F4232D2F7EB22E2AE030E025C042
S1130DF0932D997FB92E8F36C1F018F4883579F088
S1130E00B5C0803719F0883721F0B0C0E92FE06110
S1130E10BE2EB4FE0DC0FB2DF460BF2E09C034FEFF
S1130E200AC0292F2660B22E06C028E030E005C093
S1130E3020E130E002C020E132E0F801B7FE07C053
S1130E4060817181828193810C5F1F4F06C0608134
S1130E50718180E090E00E5F1F4FA3010E94120891
S1130E60882E8618FB2DFF773F2E36FE0DC0232DCE
S1130E702E7FA22E891458F434FE0BC032FC09C014
S1130E80832D8E7EA82E05C0B82CA32C03C0B82CAD
S1130E9001C0B92CA4FE0FC0FE01E80DF11D808134
S1130EA0803321F49A2D997EA92E09C0A2FE06C092
S1130EB0B394B39404C08A2D867809F0B394A3FC48
S1130EC011C0A0FE06C0B21488F4280C922C9B1802
S1130ED00EC0B21460F4B60180E290E00E94D6071E
S1130EE0B394F7CFB21418F42B1802C0982C212C09
S1130EF0A4FE10C0B60180E390E00E94D607A2FED3
S1130F0017C0A1FC03C088E790E002C088E590E028
S1130F10B6010CC08A2D867859F0A1FE02C08BE27E
S1130F2001C080E2A7FC8DE2B60190E00E94D607E2
S1130F30891438F4B60180E390E00E94D6079A94AD
S1130F40F7CF8A94F301E80DF11D8081B60190E09A
S1130F500E94D6078110F5CF222009F442CEB601B3
S1130F6080E290E00E94D6072A94F6CFF6018681AB
S1130F70978102C08FEF9FEF2B96E2E10C948C08CF
S1130F80FC010590615070400110D8F78095909550
S1130F908E0F9F1F0895FC01615070400190011055
S1130FA0D8F7809590958E0F9F1F08950F931F93E8
S1130FB0CF93DF93FB01238121FD03C08FEF9FEFCC
S1130FC02CC022FF16C046815781248135814217E7
S1130FD0530744F4A081B1819D012F5F3F4F3183BA
S1130FE020838C93268137812F5F3F4F378326835D
S1130FF014C08B01EC01FB010084F185E02D0995FF
S1131000892BE1F6D80116968D919C91179701963C
S113101017969C938E931697CE01DF91CF911F91D3
S11310200F910895FA01AA27283051F1203181F156
S1131030E8946F936E7F6E5F7F4F8F4F9F4FAF4FDC
S1131040B1E03ED0B4E03CD0670F781F891F9A1FEF
S1131050A11D680F791F8A1F911DA11D6A0F711DA3
S1131060811D911DA11D20D009F468943F912AE0AF
S1131070269F11243019305D3193DEF6CF01089597
S1131080462F4770405D4193B3E00FD0C9F7F6CFC8
S1131090462F4F70405D4A3318F0495D31FD405290
S11310A0419302D0A9F7EACFB4E0A6959795879526
S11310B077956795BA95C9F7009761057105089505
S11310C09B01AC010A2E06945795479537952795B1
S11310D0BA95C9F7620F731F841F951FA01D089549
S11310E02F923F924F925F926F927F928F929F9234
S11310F0AF92BF92CF92DF92EF92FF920F931F9322
S1131100CF93DF93CDB7DEB7CA1BDB0B0FB6F894D2
S1131110DEBF0FBECDBF09942A88398848885F8412
S11311206E847D848C849B84AA84B984C884DF8083
S1131130EE80FD800C811B81AA81B981CE0FD11D67
S11311400FB6F894DEBF0FBECDBFED010895F8943D
S1051150FFCFCB
S11311524D4158253031642E2530316456004D49B5
S11311624E253031642E25303164560041564525D2
S11311723031642E2530316456002D2D2D2D2D2D28
S10511822D003A
S9030000FC
