:100000000C942A000C943F000C943F000C943F0089
:100010000C943F000C943F000C943F000C943F0064
:100020000C943F000C943F000C943F000C943F0054
:100030000C943F000C943F000C943F000C943F0044
:100040000C943F000C943F000C943F000C943F0034
:100050000C943F0011241FBECFE5D8E0DEBFCDBF1A
:1000600011E0A0E6B0E0E2E3F9E002C005900D92F5
:10007000A23AB107D9F70E946C020C9497040C9431
:100080000000662311F0C09A01C0C098C19882BBDD
:100090008FEF81BBC29A000000000000C298089553
:1000A000C098C19A11BA90B3C29A00000000000033
:1000B00011BA90B3C29899239CF30E94410008950D
:1000C000CF92DF92EF92FF92CF936B017C0183E09E
:1000D00083BF20E030E0A901C701B6010E940104FE
:1000E0001816CCF4C3EFC2BF88B7816088BF08B6CA
:1000F00000FEFDCF2DEC3CEC4CEC5DE3C701B601FE
:100100000E9494026B017C0120E030E0A9010E9472
:100110000104181644F313BECF91FF90EF90DF90C7
:10012000CF900895B89AB99ABA9A60E070E080E8E2
:1001300091E40E94600060E080E30E94410060E082
:1001400070E080EA90E40E94600060E080E30E943A
:10015000410060E070E080E89FE30E94600060E0A2
:100160008CE30E94500060E08CE00E94500060E050
:1001700086E00E94500060E081E00E9450000895F7
:1001800060E081E00E9450000895CF93C62F98E26E
:10019000899FC00D112460E082E00E945000CC23B2
:1001A00031F060E084E10E945000C150D1F7CF915E
:1001B0000895CF93DF93EC012196FC018081882381
:1001C00031F061E00E94500089918111FACFDF91F6
:1001D000CF910895EF92FF920F931F93CF93DF93E8
:1001E0008C01F62E15BA60E070E080E89FE30E9473
:1001F000600014BA60E070E080E89FE30E94600055
:1002000084B3C1E0D0E09E0102C0220F331FFA94F4
:10021000E2F77901822B84BB60E070E080E89FE325
:100220000E94600085B3E094E822E5BA60E070E0E7
:1002300080E89FE30E94600085B30C5F1F4F002E93
:1002400002C0CC0FDD1F0A94E2F7C82BC5BB60E0EB
:1002500070E080E89FE30E94600023B330E002C0BA
:10026000359527950A95E2F781E090E020FF02C0DE
:1002700080E090E0DF91CF911F910F91FF90EF9080
:1002800008950F931F93CF93DF9300E010E018C001
:10029000B801CE010E94EA00009749F0C801880F1A
:1002A000991F880F991F01968C0F9D1F0CC02196D6
:1002B000C430D10569F70F5F1F4F0430110519F0E5
:1002C000C0E0D0E0E5CFDF91CF911F910F9108956D
:1002D0004F925F926F927F928F929F92AF92BF9256
:1002E000CF92DF92EF92FF926A017B0181309105FC
:1002F00009F45BC0BC01990F880B990B0E94750330
:100300009B01AC0160E070E080E89FE30E94010384
:1003100020E030E04AE754E40E9406044B015C010F
:100320009B01AC010E9495022B013C019B01AC0199
:1003300065E877E38AE990E40E949402A7019601B8
:100340000E940604A30192010E9401039B01AC01DB
:10035000C701B6010E9495022B013C0120E030E06C
:10036000A9010E940104181684F5C12CD12C760134
:10037000D89AC501B4010E946000D898C501B401A3
:100380000E9460002DEC3CEC4CEC5DE3C701B60133
:100390000E9495026B017C019B01AC01C301B2017B
:1003A0000E940104181624F310C027E03BEE4DE133
:1003B0005BE3C701B6010E94060420E030E44CE98B
:1003C00056E40E9406040E946000FF90EF90DF90C8
:1003D000CF90BF90AF909F908F907F906F905F90E5
:1003E0004F9008950F931F93CF93DF938130910522
:1003F00019F0029791F022C0C8E4D1E002EA11E0BE
:100400004A815B816C817D81888199810E9468012C
:1004100026960C171D07A1F721C0CCEAD0E008E40E
:1004200011E04A815B816C817D81888199810E9484
:1004300068012696C017D107A1F710C0C8E4D1E023
:1004400002EA11E04A815B816C817D81888199811A
:100450000E94680126960C171D07A1F7DF91CF9126
:100460001F910F9108958130910519F0029791F035
:1004700022C060E080E00E94C50080E690E00E941B
:10048000D90060E081E00E94C50088E690E00E940B
:10049000D900089560E080E00E94C50085E790E003
:1004A0000E94D90060E081E00E94C50080E890E0F1
:1004B0000E94D900089560E080E00E94C50080E6B7
:1004C00090E00E94D90060E081E00E94C50088E6CB
:1004D00090E00E94D900089581E08ABB0E949200BA
:1004E00060E080E00E94C5008CE890E00E94D900A6
:1004F00060E081E00E94C5008BE990E00E94D90095
:100500000E944101EC0160E070E08AEF93E40E94F8
:100510006000209729F30E94C000CE010E943302A0
:10052000CE010E94F201F7CF5058BB27AA270E94A4
:10053000AC020C94C7030E94B90338F00E94C003B8
:1005400020F039F49F3F19F426F40C94B6030EF40E
:10055000E095E7FB0C94B003E92F0E94D80358F311
:10056000BA17620773078407950720F079F4A6F598
:100570000C94FA030EF4E0950B2EBA2FA02D0B016C
:10058000B90190010C01CA01A0011124FF27591BD8
:1005900099F0593F50F4503E68F11A16F040A22FDE
:1005A000232F342F4427585FF3CF4695379527954F
:1005B000A795F0405395C9F77EF41F16BA0B620B4E
:1005C000730B840BBAF09150A1F0FF0FBB1F661F95
:1005D000771F881FC2F70EC0BA0F621F731F841FD8
:1005E00048F4879577956795B795F7959E3F08F0FE
:1005F000B0CF9395880F08F09927EE0F97958795C0
:1006000008950E9415030C94C7030E94C00358F07C
:100610000E94B90340F029F45F3F29F00C94B00325
:1006200051110C94FB030C94B6030E94D80368F399
:100630009923B1F3552391F3951B550BBB27AA279B
:1006400062177307840738F09F5F5F4F220F331FD5
:10065000441FAA1FA9F335D00E2E3AF0E0E832D09D
:1006600091505040E695001CCAF72BD0FE2F29D0A0
:10067000660F771F881FBB1F261737074807AB0772
:10068000B0E809F0BB0B802DBF01FF2793585F4FE7
:100690003AF09E3F510578F00C94B0030C94FB03A4
:1006A0005F3FE4F3983ED4F3869577956795B795C9
:1006B000F7959F5FC9F7880F911D9695879597F9D4
:1006C0000895E1E0660F771F881FBB1F621773074D
:1006D0008407BA0720F0621B730B840BBA0BEE1F62
:1006E00088F7E0950895E89409C097FB3EF490954B
:1006F0008095709561957F4F8F4F9F4F9923A9F0FB
:10070000F92F96E9BB279395F69587957795679589
:10071000B795F111F8CFFAF4BB0F11F460FF1BC0CD
:100720006F5F7F4F8F4F9F4F16C0882311F096E960
:1007300011C0772321F09EE8872F762F05C066230E
:1007400071F096E8862F70E060E02AF09A95660FC7
:10075000771F881FDAF7880F9695879597F9089580
:1007600097F99F6780E870E060E008959FEF80EC64
:10077000089500240A941616170618060906089507
:1007800000240A9412161306140605060895092E6D
:100790000394000C11F4882352F0BB0F40F4BF2BDC
:1007A00011F460FF04C06F5F7F4F8F4F9F4F08951C
:1007B00057FD9058440F551F59F05F3F71F0479512
:1007C000880F97FB991F61F09F3F79F087950895F7
:1007D000121613061406551FF2CF4695F1DF08C016
:1007E000161617061806991FF1CF86957105610533
:1007F00008940895E894BB2766277727CB0197F9DB
:1008000008950E94730408F48FEF08950E9419045C
:100810000C94C7030E94B90338F00E94C00320F073
:10082000952311F00C94B0030C94B60311240C948E
:10083000FB030E94D80370F3959FC1F3950F50E01E
:10084000551F629FF001729FBB27F00DB11D639F82
:10085000AA27F00DB11DAA1F649F6627B00DA11D28
:10086000661F829F2227B00DA11D621F739FB00DCE
:10087000A11D621F839FA00D611D221F749F33273E
:10088000A00D611D231F849F600D211D822F762FD7
:100890006A2F11249F5750409AF0F1F088234AF0B4
:1008A000EE0FFF1FBB1F661F771F881F9150504020
:1008B000A9F79E3F510580F00C94B0030C94FB0304
:1008C0005F3FE4F3983ED4F3869577956795B795A7
:1008D000F795E7959F5FC1F7FE2B880F911D9695C1
:1008E000879597F90895990F0008550FAA0BE0E82E
:1008F000FEEF16161706E807F907C0F012161306E2
:10090000E407F50798F0621B730B840B950B39F421
:100910000A2661F0232B242B252B21F408950A2687
:1009200009F4A140A6958FEF811D811D0895F894CB
:02093000FFCFF7
:1009320044612046756E6B006279204461667420C2
:1009420050756E6B0053746172205468656D65005A
:100952006279204E696E74656E646F0050726573C1
:10096200732061206E756D62657200746F2063681A
:100972006F6F7365206120736F6E6700BA020000AB
:10098200A040010000000000BA020000A0400100E7
:1009920000000000BA020000A0404B02000000402C
:1009A200BA0200000040010000000040BA0200004C
:1009B200A0404B0200000040BA02000000404B027F
:1009C20000000040BA020000A04093020000A040D4
:1009D20001000000000093020000A040010000009E
:1009E200000093020000A0400B02000000409302AE
:1009F2000000004001000000004093020000A040FF
:100A02000B02000000409302000000400B020000B5
:100A1200004093020000A04010030000B041BA025F
:100A22000000A04010030000A040A4030000A0406A
:100A32006E020000D0412A020000A0406E020000B7
:100A4200A040E4020000A040D2010000D041B80161
:100A52000000A040D2010000A0406E020000A040B1
:100A62009F010000D041B80100002041D2010000E6
:020A7200204121
:00000001FF
