S010000050726F6A656374352E7372656308
S11300000C942A000C943F000C943F000C943F0085
S11300100C943F000C943F000C943F000C943F0060
S11300200C943F000C943F000C943F000C943F0050
S11300300C943F000C943F000C943F000C943F0040
S11300400C943F000C943F000C943F000C943F0030
S11300500C943F0011241FBECFE5D8E0DEBFCDBF16
S113006011E0A0E6B0E0E6E9F3E102C005900D92EC
S1130070A831B107D9F70E9415030C94C9090C944F
S11300800000662311F0C09A01C0C098C19882BBD9
S11300908FEF81BBC29A000000000000C29808954F
S11300A0C098C19A11BA90B3C29A0000000000002F
S11300B011BA90B3C29899239CF30E944100089509
S11300C0CF92DF92EF92FF92CF936B017C0183E09A
S11300D083BF20E030E0A901C701B6010E94860574
S11300E01816CCF4C3EFC2BF88B7816088BF08B6C6
S11300F000FEFDCF2DEC3CEC4CEC5DE3C701B601FA
S11301000E94BA036B017C0120E030E0A9010E9447
S11301108605181644F313BECF91FF90EF90DF903D
S1130120CF900895EF92FF920F931F93CF93DF9395
S11301308C01F62E15BA60E070E080E89FE30E941F
S1130140600014BA60E070E080E89FE30E94600001
S113015084B3C1E0D0E09E0102C0220F331FFA94A1
S1130160E2F77901822B84BB60E070E080E89FE3D2
S11301700E94600085B3E094E822E5BA60E070E094
S113018080E89FE30E94600085B30C5F1F4F002E40
S113019002C0CC0FDD1F0A94E2F7C82BC5BB60E098
S11301A070E080E89FE30E94600023B330E002C067
S11301B0359527950A95E2F781E090E020FF02C08B
S11301C080E090E0DF91CF911F910F91FF90EF902D
S11301D008950F931F93CF93DF9300E010E018C0AE
S11301E0B801CE010E949200009749F0C801880F1F
S11301F0991F880F991F01968C0F9D1F0CC0219683
S1130200C430D10569F70F5F1F4F0430110519F091
S1130210C0E0D0E0E5CFDF91CF911F910F91089519
S1130220B89AB99ABA9A60E070E080E891E40E94C2
S1130230600060E080E30E94410060E070E080EADA
S113024090E40E94600060E080E30E94410060E06E
S113025070E080E89FE30E94600060E08CE30E940D
S1130260500060E08CE00E94500060E086E00E9454
S1130270500060E081E00E945000089560E081E059
S11302800E9450000895CF93C62F98E2899FC00D15
S1130290112460E082E00E945000CC2331F060E041
S11302A084E10E945000C150D1F7CF910895CF93BB
S11302B0DF93EC012196FC018081882331F061E019
S11302C00E94500089918111FACFDF91CF91089556
S11302D063E080E00E94430184E690E00E945701BD
S11302E061E081E00E9443018FE690E00E945701A3
S11302F008954F925F926F927F928F929F92AF92E6
S1130300BF92CF92DF92EF92FF927B01BC01990FD3
S1130310880B990B0E94D6049B01AC0160E070E04D
S113032080E89FE30E942C0420E030E04AE754E494
S11303300E948B054B015C01B701FF0C880B990BE4
S11303400E94D6042B013C0120E030E0A9010E9468
S113035086051816ECF4C12CD12C7601D99AC50166
S1130360B4010E946000D998C501B4010E946000E4
S11303702DEC3CEC4CEC5DE3C701B6010E94BB03E1
S11303806B017C01A30192010E942704882334F3AA
S1130390FF90EF90DF90CF90BF90AF909F908F90A1
S11303A07F906F905F904F9008950E943E0163E0AC
S11303B080E00E9443018EE790E00E94570160E0D4
S11303C070E88BEB94E40E9460000E943E01089563
S11303D0CF92DF92EF92FF920F931F93CF93DF930D
S11303E08C01EB0163E080E00E94430188E890E027
S11303F00E94570162E081E00E94430183E990E09A
S11304000E9457010E946C06B8016C1B7D0B6F5F44
S11304107F4F0E94F805BC016C0F7D1F072E000C56
S1130420880B990B0E94D6046B017C0120E030E01C
S1130430A9010E9486051816ECF4C0E0D0E00E94E1
S1130440E9008C01019719F40E943E0115C0219620
S1130450BE010D2E000C880B990B0E94D6049B0143
S1130460AC01C701B6010E948605181644F300E0EA
S113047010E002C000E010E0C801DF91CF911F91AD
S11304800F91FF90EF90DF90CF90089563E080E0AC
S11304900E94430180EA90E00E94570160E070E00E
S11304A08AEF94E40E9460000E943E01089563E094
S11304B080E00E9443018BEA90E00E94570160E0D3
S11304C070E08AEF94E40E9460000E943E01089567
S11304D00F931F93CF93DF93CDB7DEB764970FB617
S11304E0F894DEBF0FBECDBF182F092F60E080E067
S11304F00E94430186EB90E00E94570160E081E096
S11305000E9443010F931F9387EC90E09F938F9376
S11305108E010F5F1F4F1F930F930E947C06C8012B
S11305200E94570160E070E48CE995E40E94600049
S11305300E943E010F900F900F900F900F900F901C
S113054064960FB6F894DEBF0FBECDBFDF91CF9196
S11305501F910F910895EF92FF920F931F93CF93E2
S1130560DF937C01D89A181619067CF4C0E0D0E019
S11305700E94E9008C01019721F4D8980E943E0161
S113058009C02196EC16FD0699F7D8980E943E0101
S113059000E010E0C801DF91CF911F910F91FF900F
S11305A0EF9008950F931F93CF93DF93CDB7DEB7EA
S11305B064970FB6F894DEBF0FBECDBF182F092F76
S11305C060E080E00E94430188ED90E00E945701C2
S11305D060E081E00E9443010F931F9384EE90E05A
S11305E09F938F938E010F5F1F4F1F930F930E9452
S11305F07C06C8010E94570160E070E88BE395E433
S11306000E9460000E943E010F900F900F900F9087
S11306100F900F9064960FB6F894DEBF0FBECDBF57
S1130620DF91CF911F910F91089583E08ABB0E94BF
S1130630100160E080E00E94430185EF90E00E9499
S1130640570160E081E00E94430186E091E00E944E
S113065057010E94E9008430910589F40E943E010B
S11306600F2EFDEC8F2EFCEC9F2EFCE4AF2EFEE350
S1130670BF2EF02D612C712C90E081E411C00897FD
S1130680C1F60E943E010F2EFAE98F2EF9E99F2E42
S1130690A92CFEE3BF2EF02D612C712C90E880E490
S11306A0C12CD12C592E482E0E9468010E94E900C9
S11306B00197D1F7E62CF72C052D142DC0E0D0E0DE
S11306C00E94D5016AE070E08BE490E00E94E801AA
S11306D0892B81F0CC16DD060CF46E0165E070E028
S11306E08CED90E00E9479010E944602C6010E94AE
S11306F06802DACF6E2D7F2D802F912F0E949E04E9
S1130700CB010E94AB02892B19F1219663E070E0C2
S113071083E992E00E94790163E070E084EE92E064
S11307200E94790163E070E087E194E00E9479011E
S1130730CE010E94D202A50194016E2D7F2D802F3F
S1130740912F0E94BA03E62EF72E082F192FB8CF47
S1130750CC16DD060CF46E016AE070E08CED90E0DE
S11307600E9479010E945702C6010E9468020E94F9
S11307703E019ACF5058BB27AA270E94D2030C945B
S11307804C050E943E0538F00E94450520F039F4DE
S11307909F3F19F426F40C943B050EF4E095E7FB17
S11307A00C943505E92F0E945D0558F3BA176207CA
S11307B073078407950720F079F4A6F50C947F0558
S11307C00EF4E0950B2EBA2FA02D0B01B901900168
S11307D00C01CA01A0011124FF27591B99F0593FAC
S11307E050F4503E68F11A16F040A22F232F342FF4
S11307F04427585FF3CF469537952795A795F04042
S11308005395C9F77EF41F16BA0B620B730B840B56
S1130810BAF09150A1F0FF0FBB1F661F771F881F0E
S1130820C2F70EC0BA0F621F731F841F48F4879566
S113083077956795B795F7959E3F08F0B0CF939558
S1130840880F08F09927EE0F9795879508950E94D1
S1130850110508F481E008950E9440040C944C05AD
S11308600E94450558F00E943E0540F029F45F3F80
S113087029F00C94350551110C9480050C943B051A
S11308800E945D0568F39923B1F3552391F3951BF9
S1130890550BBB27AA2762177307840738F09F5F9D
S11308A05F4F220F331F441FAA1FA9F335D00E2E0A
S11308B03AF0E0E832D091505040E695001CCAF777
S11308C02BD0FE2F29D0660F771F881FBB1F26173A
S11308D037074807AB07B0E809F0BB0B802DBF0111
S11308E0FF2793585F4F3AF09E3F510578F00C94E0
S11308F035050C9480055F3FE4F3983ED4F3869568
S113090077956795B795F7959F5FC9F7880F911D00
S11309109695879597F90895E1E0660F771F881FEC
S1130920BB1F621773078407BA0720F0621B730B9F
S1130930840BBA0BEE1F88F7E09508950E94A50476
S11309406894B1110C94800508950E94650588F09F
S11309509F5798F0B92F9927B751B0F0E1F0660F7F
S1130960771F881F991F1AF0BA95C9F714C0B130C0
S113097091F00E947F05B1E008950C947F05672FE4
S1130980782F8827B85F39F0B93FCCF386957795EF
S11309906795B395D9F73EF49095809570956195D8
S11309A07F4F8F4F9F4F0895E89409C097FB3EF403
S11309B090958095709561957F4F8F4F9F4F9923A8
S11309C0A9F0F92F96E9BB279395F6958795779526
S11309D06795B795F111F8CFFAF4BB0F11F460FFE6
S11309E01BC06F5F7F4F8F4F9F4F16C0882311F03E
S11309F096E911C0772321F09EE8872F762F05C052
S1130A00662371F096E8862F70E060E02AF09A95EC
S1130A10660F771F881FDAF7880F9695879597F9E1
S1130A200895990F0008550FAA0BE0E8FEEF16167B
S1130A301706E807F907C0F012161306E407F507CE
S1130A4098F0621B730B840B950B39F40A2661F042
S1130A50232B242B252B21F408950A2609F4A140E5
S1130A60A6958FEF811D811D089597F99F6780E8F2
S1130A7070E060E008959FEF80EC089500240A94EC
S1130A801616170618060906089500240A94121665
S1130A901306140605060895092E0394000C11F498
S1130AA0882352F0BB0F40F4BF2B11F460FF04C045
S1130AB06F5F7F4F8F4F9F4F089557FD9058440F9E
S1130AC0551F59F05F3F71F04795880F97FB991FA9
S1130AD061F09F3F79F08795089512161306140666
S1130AE0551FF2CF4695F1DF08C0161617061806F3
S1130AF0991FF1CF86957105610508940895E894CE
S1130B00BB2766277727CB0197F908950E94110523
S1130B1008F48FEF08950E949E050C944C050E94E2
S1130B203E0538F00E94450520F0952311F00C9401
S1130B3035050C943B0511240C9480050E945D0539
S1130B4070F3959FC1F3950F50E0551F629FF0011C
S1130B50729FBB27F00DB11D639FAA27F00DB11D35
S1130B60AA1F649F6627B00DA11D661F829F2227BE
S1130B70B00DA11D621F739FB00DA11D621F839F45
S1130B80A00D611D221F749F3327A00D611D231F1B
S1130B90849F600D211D822F762F6A2F11249F5769
S1130BA050409AF0F1F088234AF0EE0FFF1FBB1F6C
S1130BB0661F771F881F91505040A9F79E3F51052B
S1130BC080F00C9435050C9480055F3FE4F3983E67
S1130BD0D4F3869577956795B795F795E7959F5FD5
S1130BE0C1F7FE2B880F911D9695879597F9089567
S1130BF097FB072E16F4009407D077FD09D00E94C6
S1130C000C0607FC05D03EF4909581959F4F0895FE
S1130C10709561957F4F0895AA1BBB1B51E107C0D6
S1130C20AA1FBB1FA617B70710F0A61BB70B881F78
S1130C30991F5A95A9F780959095BC01CD01089507
S1130C408F929F92AF92BF92CF92DF92EF92FF92D8
S1130C50CF93DF93EC01688179818A819B8161154F
S1130C6071058105910521F464E279ED8BE597E046
S1130C702DE133EF41E050E00E942F0949015A0170
S1130C809B01AC01A7EAB1E40E944E096B017C010F
S1130C90ACEEB4EFA50194010E945C09DC01CB0128
S1130CA08C0D9D1DAE1DBF1DB7FF03C00197A1098B
S1130CB0B04888839983AA83BB839F77DF91CF91C0
S1130CC0FF90EF90DF90CF90BF90AF909F908F9068
S1130CD008950E942006089580E690E00E94200670
S1130CE00895A0E0B0E08093600090936100A09329
S1130CF06200B09363000895AEE0B0E0E2E8F6E08D
S1130D000C946F090D891E8986E08C831A830983EC
S1130D108FEF9FE79E838D83AE01475E5F4F6F89A0
S1130D20788DCE0101960E949E06EF81F885E00F32
S1130D30F11F10822E96E4E00C948B09ABE0B0E036
S1130D40E4EAF6E00C9461096C017B018A01FC0180
S1130D5017821682838181FFCCC1CE0101963C01AA
S1130D60F6019381F70193FD859193FF81917F01B2
S1130D70882309F4BAC1853239F493FD859193FF30
S1130D8081917F01853229F4B60190E00E94950893
S1130D90E7CF912C212C312CFFE1F315D8F08B32C5
S1130DA079F038F4803279F08332A1F4232D206174
S1130DB01DC08D3261F0803369F4232D216016C08B
S1130DC0832D8260382EE32DE4603E2E2AC0F32D5D
S1130DD0F8601DC037FC2DC020ED280F2A3040F0EC
S1130DE08E32B9F436FC81C1232D2064322E19C011
S1130DF036FE06C08AE0989E200D1124922E11C062
S1130E00EAE02E9E200D1124222EF32DF0623F2EB7
S1130E1008C08C3621F4832D8068382E02C08836B1
S1130E2041F4F70193FD859193FF81917F01811135
S1130E30B3CF982F9F7D9554933028F40C5F1F4FA8
S1130E409FE399830DC0833631F0833771F0833586
S1130E5009F059C021C0F801808189830E5F1F4FBA
S1130E6088248394912C530113C02801F2E04F0E7F
S1130E70511CF801A080B18036FE03C0692D70E0DA
S1130E8002C06FEF7FEFC5010E948A084C01820106
S1130E90F32DFF773F2E16C0280122E0420E511C8D
S1130EA0F801A080B18036FE03C0692D70E002C055
S1130EB06FEF7FEFC5010E947F084C01F32DF068AE
S1130EC03F2E820133FC1BC0822D90E088169906C8
S1130ED0B0F4B60180E290E00E9495082A94F4CF21
S1130EE0F50137FC859137FE81915F01B60190E0F1
S1130EF00E94950821102A9421E0821A91088114F5
S1130F00910471F7E8C0843611F0893641F5F8018F
S1130F1037FE07C060817181828193810C5F1F4F0E
S1130F2008C060817181072E000C880B990B0E5F3D
S1130F301F4FF32DFF763F2E97FF09C090958095A4
S1130F40709561957F4F8F4F9F4FF0683F2E2AE039
S1130F5030E0A3010E94D108882E861845C0853749
S1130F6031F4232D2F7EB22E2AE030E025C0932DBC
S1130F70997FB92E8F36C1F018F4883579F0B5C051
S1130F80803719F0883721F0B0C0E92FE061BE2E18
S1130F90B4FE0DC0FB2DF460BF2E09C034FE0AC0A0
S1130FA0292F2660B22E06C028E030E005C020E1DB
S1130FB030E002C020E132E0F801B7FE07C06081F2
S1130FC07181828193810C5F1F4F06C060817181A2
S1130FD080E090E00E5F1F4FA3010E94D108882E8D
S1130FE08618FB2DFF773F2E36FE0DC0232D2E7F56
S1130FF0A22E891458F434FE0BC032FC09C0832D90
S11310008E7EA82E05C0B82CA32C03C0B82C01C01A
S1131010B92CA4FE0FC0FE01E80DF11D80818033C0
S113102021F49A2D997EA92E09C0A2FE06C0B3947C
S1131030B39404C08A2D867809F0B394A3FC11C03C
S1131040A0FE06C0B21488F4280C922C9B180EC083
S1131050B21460F4B60180E290E00E949508B39463
S1131060F7CFB21418F42B1802C0982C212CA4FE2C
S113107010C0B60180E390E00E949508A2FE17C05C
S1131080A1FC03C088E790E002C088E590E0B601C7
S11310900CC08A2D867859F0A1FE02C08BE201C0F3
S11310A080E2A7FC8DE2B60190E00E9495088914C5
S11310B038F4B60180E390E00E9495089A94F7CF43
S11310C08A94F301E80DF11D8081B60190E00E943D
S11310D095088110F5CF222009F442CEB60180E2B2
S11310E090E00E9495082A94F6CFF60186819781B4
S11310F002C08FEF9FEF2B96E2E10C947D09FC0177
S11311000590615070400110D8F7809590958E0F2E
S11311109F1F0895FC016150704001900110D8F7A1
S1131120809590958E0F9F1F08950F931F93CF93D3
S1131130DF93FB01238121FD03C08FEF9FEF2CC0C0
S113114022FF16C0468157812481358142175307F7
S113115044F4A081B1819D012F5F3F4F31832083EF
S11311608C93268137812F5F3F4F3783268314C0AA
S11311708B01EC01FB010084F185E02D0995892B9D
S1131180E1F6D80116968D919C91179701961796C2
S11311909C938E931697CE01DF91CF911F910F915F
S11311A00895FA01AA27283051F1203181F1E894F9
S11311B06F936E7F6E5F7F4F8F4F9F4FAF4FB1E046
S11311C03ED0B4E03CD0670F781F891F9A1FA11D41
S11311D0680F791F8A1F911DA11D6A0F711D811D42
S11311E0911DA11D20D009F468943F912AE0269F07
S11311F011243019305D3193DEF6CF010895462F66
S11312004770405D4193B3E00FD0C9F7F6CF462F46
S11312104F70405D4A3318F0495D31FD40524193AF
S113122002D0A9F7EACFB4E0A6959795879577956C
S11312306795BA95C9F700976105710508959B01F3
S1131240AC010A2E06945795479537952795BA957C
S1131250C9F7620F731F841F951FA01D0895052EE3
S113126097FB1EF400940E94460957FD07D00E9484
S1131270980907FC03D04EF40C9446095095409508
S1131280309521953F4F4F4F5F4F0895909580952E
S1131290709561957F4F8F4F9F4F08950E94BA09B3
S11312A0A59F900DB49F900DA49F800D911D1124B6
S11312B00895B7FF0C944E090E944E09821B930BAC
S11312C008952F923F924F925F926F927F928F92E6
S11312D09F92AF92BF92CF92DF92EF92FF920F93C1
S11312E01F93CF93DF93CDB7DEB7CA1BDB0B0FB6CB
S11312F0F894DEBF0FBECDBF09942A883988488888
S11313005F846E847D848C849B84AA84B984C8841D
S1131310DF80EE80FD800C811B81AA81B981CE0F14
S1131320D11D0FB6F894DEBF0FBECDBFED010895F9
S1131330A1E21A2EAA1BBB1BFD010DC0AA1FBB1FD5
S1131340EE1FFF1FA217B307E407F50720F0A21B47
S1131350B30BE40BF50B661F771F881F991F1A94B4
S113136069F760957095809590959B01AC01BD01DE
S1131370CF010895A29FB001B39FC001A39F700D38
S1131380811D1124911DB29F700D811D1124911D89
S10913900895F894FFCF5C
S1131396010000005072657373203120746F00746D
S11313A6657374207265616374696F6E7300474573
S11313B654205245414459002D6C6F6F6B202061B7
S11313C6742D002D74686520206C696768742D007F
S11313D6544F4F204541524C592100544F4F204CF5
S11313E641544521210021212147414D4520204FCB
S11313F656455221212100486967682053636F725C
S1131406653A202530346400434F525245435421F3
S113141621212100596F75722053636F72653A203A
S113142625303464005072657373204120666F72F0
S11314362045617379005072657373204220666F8C
S10B1446722048617264000089
S9030000FC
