S010000050726F6A656374312E737265630C
S11300000C942A000C9434000C9434000C943400A6
S11300100C9434000C9434000C9434000C9434008C
S11300200C9434000C9434000C9434000C9434007C
S11300300C9434000C9434000C9434000C9434006C
S11300400C9434000C9434000C9434000C9434005C
S11300500C94340011241FBECFE5D8E0DEBFCDBF21
S11300600E9447000C9459000C9400009C0183E00A
S113007083BF83E807C082BF98B7916098BF08B672
S113008000FEFDCF21503109B0F713BE089581E081
S113009087BBC1E0B1990BC0C8BB84EF91E00E945B
S11300A0360018BA84EF91E00E943600F3CF18BAF4
S10900B0F1CFF894FFCF2C
S9030000FC
