S010000050726F6A656374352E7372656308
S11300000C942A000C943F000C943F000C943F0085
S11300100C943F000C943F000C943F000C943F0060
S11300200C943F000C943F000C943F000C943F0050
S11300300C943F000C943F000C943F000C943F0040
S11300400C943F000C943F000C943F000C943F0030
S11300500C943F0011241FBECFE5D8E0DEBFCDBF16
S113006010E0A0E6B0E0E0E4FDE002C005900D92EF
S1130070A437B107D9F70E9481020C949E060C9410
S11300800000662311F0C09A01C0C098C19882BBD9
S11300908FEF81BBC29A000000000000C29808954F
S11300A0C098C19A11BA90B3C29A0000000000002F
S11300B011BA90B3C29899239CF30E944100089509
S11300C0CF92DF92EF92FF92CF936B017C0183E09A
S11300D083BF20E030E0A901C701B6010E94AF034D
S11300E01816CCF4C3EFC2BF88B7816088BF08B6C6
S11300F000FEFDCF2DEC3CEC4CEC5DE3C701B601FA
S11301000E94C8026B017C0120E030E0A9010E943A
S1130110AF03181644F313BECF91FF90EF90DF9016
S1130120CF900895EF92FF920F931F93CF93DF9395
S11301308C01F62E15BA60E070E080E89FE30E941F
S1130140600014BA60E070E080E89FE30E94600001
S113015084B3C1E0D0E09E0102C0220F331FFA94A1
S1130160E2F77901822B84BB60E070E080E89FE3D2
S11301700E94600085B3E094E822E5BA60E070E094
S113018080E89FE30E94600085B30C5F1F4F002E40
S113019002C0CC0FDD1F0A94E2F7C82BC5BB60E098
S11301A070E080E89FE30E94600023B330E002C067
S11301B0359527950A95E2F781E090E020FF02C08B
S11301C080E090E0DF91CF911F910F91FF90EF902D
S11301D008950F931F93CF93DF9300E010E018C0AE
S11301E0B801CE010E949200009749F0C801880F1F
S11301F0991F880F991F01968C0F9D1F0CC0219683
S1130200C430D10569F70F5F1F4F0430110519F091
S1130210C0E0D0E0E5CFDF91CF911F910F91089519
S1130220B89AB99ABA9A60E070E080E891E40E94C2
S1130230600060E080E30E94410060E070E080EADA
S113024090E40E94600060E080E30E94410060E06E
S113025070E080E89FE30E94600060E08CE30E940D
S1130260500060E08CE00E94500060E086E00E9454
S1130270500060E081E00E9450000895CF93C62FA3
S113028098E2899FC00D112460E082E00E94500032
S1130290CC2331F060E084E10E945000C150D1F7DA
S11302A0CF910895CF93DF93EC012196FC018081D7
S11302B0882331F061E00E94500089918111FACFC6
S11302C0DF91CF9108954F925F926F927F928F92B8
S11302D09F92AF92BF92CF92DF92EF92FF928430BF
S11302E0910561F10897E9F120E030E0A9012901C5
S11302F03A01CA01B9010E94AF0318160CF041C0BB
S1130300C12CD12C7601D99AC501B4010E94600098
S1130310D998C501B4010E9460002DEC3CEC4CEC72
S11303205DE3C701B6010E94C9026B017C01A30110
S113033092010E943503882334F323C00F2E412CED
S1130340512CF0E86F2EFFE37F2EF02D0F2EFDE5EC
S11303508F2EF4E79F2EF1E9AF2EFFE3BF2EF02D91
S1130360CFCF412C512C3201689476F80F2EFDE545
S11303708F2EF4E79F2EF1E1AF2EF0E4BF2EF02D87
S1130380BFCFFF90EF90DF90CF90BF90AF909F9042
S11303908F907F906F905F904F900895DF92EF92CF
S11303A0FF920F931F93CF93DF93D82F7B01D8989D
S11303B0CB010E946301C0E001E010E0DD2E602F5C
S11303C08D2F0E943E0184E0E816F10459F460E0A8
S11303D070E088EC91E40E94600086E690E00E9460
S11303E052010EC088E0E816F10451F460E070E0B8
S11303F088E492E40E94600088E690E00E94520142
S11304000230110544F06C2F8D2F0E943E018AE6C4
S113041090E00E945201CE3049F46FE08D2D0E948D
S11304203E018AE690E00E94520105C00F5F1F4F13
S1130430CF5FCF3019F6D89ADF91CF911F910F91EA
S1130440FF90EF90DF900895CF93DF93EC0160E08D
S11304500E943E0160E070E088E493E40E94600042
S11304608AE690E00E94520181E090E0CD2B11F0E9
S113047080E090E0DF91CF9108950F931F93CF9385
S1130480DF93CDB7DEB72A970FB6F894DEBF0FBE61
S1130490CDBF8C01FC01648175816F30710541F021
S11304A06F5F82810E943E018AE690E00E945201C1
S11304B0F801648182810E943E01F80181818F9359
S11304C080818F938CE690E09F938F938E010F5FD2
S11304D01F4F1F930F930E94B403C8010E9452013F
S11304E00F900F900F900F900F900F902A960FB6C9
S11304F0F894DEBF0FBECDBFDF91CF911F910F9156
S11305000895CF93DF9300D000D000D0CDB7DEB7ED
S113051083E08ABB0E94100186E0E0E6F0E0DE01A1
S1130520119601900D928A95E1F710E000E0D89AB7
S1130530CE0101960E943D020E94E900019731F428
S1130540812F902F0E942402182F092F60E0812F01
S11305500E943E0181E790E00E9452010E94E9005E
S11305608430910539F464E070E0812F902F0E946B
S1130570CE0108C0089731F468E070E0812F902F15
S11305800E94CE018D819E8101979E838D83CFCF62
S11305905058BB27AA270E94E0020C9475030E94BE
S11305A0670338F00E946E0320F039F49F3F19F47A
S11305B026F40C9464030EF4E095E7FB0C945E03BC
S11305C0E92F0E94860358F3BA176207730784075A
S11305D0950720F079F4A6F50C94A8030EF4E095A1
S11305E00B2EBA2FA02D0B01B90190010C01CA01E9
S11305F0A0011124FF27591B99F0593F50F4503E94
S113060068F11A16F040A22F232F342F4427585F85
S1130610F3CF469537952795A795F0405395C9F79D
S11306207EF41F16BA0B620B730B840BBAF0915055
S1130630A1F0FF0FBB1F661F771F881FC2F70EC0F4
S1130640BA0F621F731F841F48F4879577956795C7
S1130650B795F7959E3F08F0B0CF9395880F08F0B3
S11306609927EE0F9795879508950E943A0308F409
S113067081E00895990F0008550FAA0BE0E8FEEFFA
S113068016161706E807F907C0F012161306E40752
S1130690F50798F0621B730B840B950B39F40A264B
S11306A061F0232B242B252B21F408950A2609F429
S11306B0A140A6958FEF811D811D089597F99F672D
S11306C080E870E060E008959FEF80EC08950024D6
S11306D00A941616170618060906089500240A94A3
S11306E012161306140605060895092E0394000C29
S11306F011F4882352F0BB0F40F4BF2B11F460FFB8
S113070004C06F5F7F4F8F4F9F4F089557FD9058E0
S1130710440F551F59F05F3F71F04795880F97FBC1
S1130720991F61F09F3F79F087950895121613067B
S11307301406551FF2CF4695F1DF08C016161706AA
S11307401806991FF1CF86957105610508940895DF
S1130750E894BB2766277727CB0197F908950E9471
S11307603A0308F48FEF0895AEE0B0E0EAEBF3E06B
S11307700C9475060D891E8986E08C831A8309837F
S11307808FEF9FE79E838D83AE01475E5F4F6F8936
S1130790788DCE0101960E94D603EF81F885E00F93
S11307A0F11F10822E96E4E00C949106ABE0B0E0C9
S11307B0ECEDF3E00C9467066C017B018A01FC010B
S11307C017821682838181FFCCC1CE0101963C0140
S11307D0F6019381F70193FD859193FF81917F0148
S11307E0882309F4BAC1853239F493FD859193FFC6
S11307F081917F01853229F4B60190E00E94CD05F4
S1130800E7CF912C212C312CFFE1F315D8F08B325A
S113081079F038F4803279F08332A1F4232D206109
S11308201DC08D3261F0803369F4232D216016C020
S1130830832D8260382EE32DE4603E2E2AC0F32DF2
S1130840F8601DC037FC2DC020ED280F2A3040F081
S11308508E32B9F436FC81C1232D2064322E19C0A6
S113086036FE06C08AE0989E200D1124922E11C0F7
S1130870EAE02E9E200D1124222EF32DF0623F2E4D
S113088008C08C3621F4832D8068382E02C0883647
S113089041F4F70193FD859193FF81917F018111CB
S11308A0B3CF982F9F7D9554933028F40C5F1F4F3E
S11308B09FE399830DC0833631F0833771F083351C
S11308C009F059C021C0F801808189830E5F1F4F50
S11308D088248394912C530113C02801F2E04F0E15
S11308E0511CF801A080B18036FE03C0692D70E070
S11308F002C06FEF7FEFC5010E94C2054C01820167
S1130900F32DFF773F2E16C0280122E0420E511C22
S1130910F801A080B18036FE03C0692D70E002C0EA
S11309206FEF7FEFC5010E94B7054C01F32DF0680E
S11309303F2E820133FC1BC0822D90E0881699065D
S1130940B0F4B60180E290E00E94CD052A94F4CF81
S1130950F50137FC859137FE81915F01B60190E086
S11309600E94CD0521102A9421E0821A9108811455
S1130970910471F7E8C0843611F0893641F5F80125
S113098037FE07C060817181828193810C5F1F4FA4
S113099008C060817181072E000C880B990B0E5FD3
S11309A01F4FF32DFF763F2E97FF09C0909580953A
S11309B0709561957F4F8F4F9F4FF0683F2E2AE0CF
S11309C030E0A3010E940906882E861845C08537A9
S11309D031F4232D2F7EB22E2AE030E025C0932D52
S11309E0997FB92E8F36C1F018F4883579F0B5C0E7
S11309F0803719F0883721F0B0C0E92FE061BE2EAE
S1130A00B4FE0DC0FB2DF460BF2E09C034FE0AC035
S1130A10292F2660B22E06C028E030E005C020E170
S1130A2030E002C020E132E0F801B7FE07C0608187
S1130A307181828193810C5F1F4F06C06081718137
S1130A4080E090E00E5F1F4FA3010E940906882EEC
S1130A508618FB2DFF773F2E36FE0DC0232D2E7FEB
S1130A60A22E891458F434FE0BC032FC09C0832D25
S1130A708E7EA82E05C0B82CA32C03C0B82C01C0B0
S1130A80B92CA4FE0FC0FE01E80DF11D8081803356
S1130A9021F49A2D997EA92E09C0A2FE06C0B39412
S1130AA0B39404C08A2D867809F0B394A3FC11C0D2
S1130AB0A0FE06C0B21488F4280C922C9B180EC019
S1130AC0B21460F4B60180E290E00E94CD05B394C4
S1130AD0F7CFB21418F42B1802C0982C212CA4FEC2
S1130AE010C0B60180E390E00E94CD05A2FE17C0BD
S1130AF0A1FC03C088E790E002C088E590E0B6015D
S1130B000CC08A2D867859F0A1FE02C08BE201C088
S1130B1080E2A7FC8DE2B60190E00E94CD05891425
S1130B2038F4B60180E390E00E94CD059A94F7CFA3
S1130B308A94F301E80DF11D8081B60190E00E94D2
S1130B40CD058110F5CF222009F442CEB60180E212
S1130B5090E00E94CD052A94F6CFF6018681978114
S1130B6002C08FEF9FEF2B96E2E10C948306FC0109
S1130B700590615070400110D8F7809590958E0FC4
S1130B809F1F0895FC016150704001900110D8F737
S1130B90809590958E0F9F1F08950F931F93CF9369
S1130BA0DF93FB01238121FD03C08FEF9FEF2CC056
S1130BB022FF16C04681578124813581421753078D
S1130BC044F4A081B1819D012F5F3F4F3183208385
S1130BD08C93268137812F5F3F4F3783268314C040
S1130BE08B01EC01FB010084F185E02D0995892B33
S1130BF0E1F6D80116968D919C9117970196179658
S1130C009C938E931697CE01DF91CF911F910F91F4
S1130C100895FA01AA27283051F1203181F1E8948E
S1130C206F936E7F6E5F7F4F8F4F9F4FAF4FB1E0DB
S1130C303ED0B4E03CD0670F781F891F9A1FA11DD6
S1130C40680F791F8A1F911DA11D6A0F711D811DD7
S1130C50911DA11D20D009F468943F912AE0269F9C
S1130C6011243019305D3193DEF6CF010895462FFB
S1130C704770405D4193B3E00FD0C9F7F6CF462FDC
S1130C804F70405D4A3318F0495D31FD4052419345
S1130C9002D0A9F7EACFB4E0A69597958795779502
S1130CA06795BA95C9F700976105710508959B0189
S1130CB0AC010A2E06945795479537952795BA9512
S1130CC0C9F7620F731F841F951FA01D08952F92EB
S1130CD03F924F925F926F927F928F929F92AF92C8
S1130CE0BF92CF92DF92EF92FF920F931F93CF9315
S1130CF0DF93CDB7DEB7CA1BDB0B0FB6F894DEBFAC
S1130D000FBECDBF09942A88398848885F846E84D1
S1130D107D848C849B84AA84B984C884DF80EE801B
S1130D20FD800C811B81AA81B981CE0FD11D0FB624
S1130D30F894DEBF0FBECDBFED010895F894FFCF48
S1130D40050000000F002D006F00200025303164E5
S1070D50007E00001D
S9030000FC
